{"abi":[{"type":"function","name":"getMessage","inputs":[],"outputs":[{"name":"","type":"string","internalType":"string"}],"stateMutability":"view"}],"bytecode":{"object":"0x60c0604052601860809081527f4c656e7353636f72655342542068656c6c6f20776f726c64000000000000000060a0525f9061003b90826100e5565b50348015610047575f80fd5b506101a4565b634e487b7160e01b5f52604160045260245ffd5b600181811c9082168061007557607f821691505b60208210810361009357634e487b7160e01b5f52602260045260245ffd5b50919050565b601f8211156100e057805f5260205f20601f840160051c810160208510156100be5750805b601f840160051c820191505b818110156100dd575f81556001016100ca565b50505b505050565b81516001600160401b038111156100fe576100fe61004d565b6101128161010c8454610061565b84610099565b602080601f831160018114610145575f841561012e5750858301515b5f19600386901b1c1916600185901b17855561019c565b5f85815260208120601f198616915b8281101561017357888601518255948401946001909101908401610154565b508582101561019057878501515f19600388901b60f8161c191681555b505060018460011b0185555b505050505050565b610194806101b15f395ff3fe608060405234801561000f575f80fd5b5060043610610029575f3560e01c8063ce6d41de1461002d575b5f80fd5b61003561004b565b60405161004291906100da565b60405180910390f35b60605f805461005990610126565b80601f016020809104026020016040519081016040528092919081815260200182805461008590610126565b80156100d05780601f106100a7576101008083540402835291602001916100d0565b820191905f5260205f20905b8154815290600101906020018083116100b357829003601f168201915b5050505050905090565b5f602080835283518060208501525f5b81811015610106578581018301518582016040015282016100ea565b505f604082860101526040601f19601f8301168501019250505092915050565b600181811c9082168061013a57607f821691505b60208210810361015857634e487b7160e01b5f52602260045260245ffd5b5091905056fea26469706673582212205e390add8664d9cd1ca5f01f15095676a972909f8b39ddca9d817dfcf1252f6f64736f6c63430008180033","linkReferences":{}},"methodIdentifiers":{"getMessage()":"ce6d41de"},"id":0}